{
  "contractName": "MainContract",
  "abi": [
    {
      "inputs": [],
      "stateMutability": "nonpayable",
      "type": "constructor"
    },
    {
      "anonymous": false,
      "inputs": [
        {
          "indexed": true,
          "internalType": "address",
          "name": "owner",
          "type": "address"
        },
        {
          "indexed": true,
          "internalType": "address",
          "name": "approved",
          "type": "address"
        },
        {
          "indexed": true,
          "internalType": "uint256",
          "name": "tokenId",
          "type": "uint256"
        }
      ],
      "name": "Approval",
      "type": "event"
    },
    {
      "anonymous": false,
      "inputs": [
        {
          "indexed": true,
          "internalType": "address",
          "name": "owner",
          "type": "address"
        },
        {
          "indexed": true,
          "internalType": "address",
          "name": "operator",
          "type": "address"
        },
        {
          "indexed": false,
          "internalType": "bool",
          "name": "approved",
          "type": "bool"
        }
      ],
      "name": "ApprovalForAll",
      "type": "event"
    },
    {
      "anonymous": false,
      "inputs": [
        {
          "indexed": false,
          "internalType": "uint256",
          "name": "tokenId",
          "type": "uint256"
        },
        {
          "indexed": false,
          "internalType": "uint256",
          "name": "price",
          "type": "uint256"
        },
        {
          "indexed": false,
          "internalType": "address",
          "name": "creator",
          "type": "address"
        },
        {
          "indexed": false,
          "internalType": "bool",
          "name": "isListed",
          "type": "bool"
        }
      ],
      "name": "NftItemCreated",
      "type": "event"
    },
    {
      "anonymous": false,
      "inputs": [
        {
          "indexed": true,
          "internalType": "address",
          "name": "previousOwner",
          "type": "address"
        },
        {
          "indexed": true,
          "internalType": "address",
          "name": "newOwner",
          "type": "address"
        }
      ],
      "name": "OwnershipTransferred",
      "type": "event"
    },
    {
      "anonymous": false,
      "inputs": [
        {
          "indexed": true,
          "internalType": "address",
          "name": "from",
          "type": "address"
        },
        {
          "indexed": true,
          "internalType": "address",
          "name": "to",
          "type": "address"
        },
        {
          "indexed": true,
          "internalType": "uint256",
          "name": "tokenId",
          "type": "uint256"
        }
      ],
      "name": "Transfer",
      "type": "event"
    },
    {
      "inputs": [
        {
          "internalType": "address",
          "name": "to",
          "type": "address"
        },
        {
          "internalType": "uint256",
          "name": "tokenId",
          "type": "uint256"
        }
      ],
      "name": "approve",
      "outputs": [],
      "stateMutability": "nonpayable",
      "type": "function"
    },
    {
      "inputs": [
        {
          "internalType": "address",
          "name": "owner",
          "type": "address"
        }
      ],
      "name": "balanceOf",
      "outputs": [
        {
          "internalType": "uint256",
          "name": "",
          "type": "uint256"
        }
      ],
      "stateMutability": "view",
      "type": "function",
      "constant": true
    },
    {
      "inputs": [
        {
          "internalType": "uint256",
          "name": "tokenId",
          "type": "uint256"
        }
      ],
      "name": "getApproved",
      "outputs": [
        {
          "internalType": "address",
          "name": "",
          "type": "address"
        }
      ],
      "stateMutability": "view",
      "type": "function",
      "constant": true
    },
    {
      "inputs": [
        {
          "internalType": "address",
          "name": "owner",
          "type": "address"
        },
        {
          "internalType": "address",
          "name": "operator",
          "type": "address"
        }
      ],
      "name": "isApprovedForAll",
      "outputs": [
        {
          "internalType": "bool",
          "name": "",
          "type": "bool"
        }
      ],
      "stateMutability": "view",
      "type": "function",
      "constant": true
    },
    {
      "inputs": [],
      "name": "listingPrice",
      "outputs": [
        {
          "internalType": "uint256",
          "name": "",
          "type": "uint256"
        }
      ],
      "stateMutability": "view",
      "type": "function",
      "constant": true
    },
    {
      "inputs": [],
      "name": "name",
      "outputs": [
        {
          "internalType": "string",
          "name": "",
          "type": "string"
        }
      ],
      "stateMutability": "view",
      "type": "function",
      "constant": true
    },
    {
      "inputs": [],
      "name": "owner",
      "outputs": [
        {
          "internalType": "address",
          "name": "",
          "type": "address"
        }
      ],
      "stateMutability": "view",
      "type": "function",
      "constant": true
    },
    {
      "inputs": [
        {
          "internalType": "uint256",
          "name": "tokenId",
          "type": "uint256"
        }
      ],
      "name": "ownerOf",
      "outputs": [
        {
          "internalType": "address",
          "name": "",
          "type": "address"
        }
      ],
      "stateMutability": "view",
      "type": "function",
      "constant": true
    },
    {
      "inputs": [],
      "name": "renounceOwnership",
      "outputs": [],
      "stateMutability": "nonpayable",
      "type": "function"
    },
    {
      "inputs": [
        {
          "internalType": "address",
          "name": "from",
          "type": "address"
        },
        {
          "internalType": "address",
          "name": "to",
          "type": "address"
        },
        {
          "internalType": "uint256",
          "name": "tokenId",
          "type": "uint256"
        }
      ],
      "name": "safeTransferFrom",
      "outputs": [],
      "stateMutability": "nonpayable",
      "type": "function"
    },
    {
      "inputs": [
        {
          "internalType": "address",
          "name": "from",
          "type": "address"
        },
        {
          "internalType": "address",
          "name": "to",
          "type": "address"
        },
        {
          "internalType": "uint256",
          "name": "tokenId",
          "type": "uint256"
        },
        {
          "internalType": "bytes",
          "name": "data",
          "type": "bytes"
        }
      ],
      "name": "safeTransferFrom",
      "outputs": [],
      "stateMutability": "nonpayable",
      "type": "function"
    },
    {
      "inputs": [
        {
          "internalType": "address",
          "name": "operator",
          "type": "address"
        },
        {
          "internalType": "bool",
          "name": "approved",
          "type": "bool"
        }
      ],
      "name": "setApprovalForAll",
      "outputs": [],
      "stateMutability": "nonpayable",
      "type": "function"
    },
    {
      "inputs": [
        {
          "internalType": "bytes4",
          "name": "interfaceId",
          "type": "bytes4"
        }
      ],
      "name": "supportsInterface",
      "outputs": [
        {
          "internalType": "bool",
          "name": "",
          "type": "bool"
        }
      ],
      "stateMutability": "view",
      "type": "function",
      "constant": true
    },
    {
      "inputs": [],
      "name": "symbol",
      "outputs": [
        {
          "internalType": "string",
          "name": "",
          "type": "string"
        }
      ],
      "stateMutability": "view",
      "type": "function",
      "constant": true
    },
    {
      "inputs": [
        {
          "internalType": "uint256",
          "name": "tokenId",
          "type": "uint256"
        }
      ],
      "name": "tokenURI",
      "outputs": [
        {
          "internalType": "string",
          "name": "",
          "type": "string"
        }
      ],
      "stateMutability": "view",
      "type": "function",
      "constant": true
    },
    {
      "inputs": [
        {
          "internalType": "address",
          "name": "from",
          "type": "address"
        },
        {
          "internalType": "address",
          "name": "to",
          "type": "address"
        },
        {
          "internalType": "uint256",
          "name": "tokenId",
          "type": "uint256"
        }
      ],
      "name": "transferFrom",
      "outputs": [],
      "stateMutability": "nonpayable",
      "type": "function"
    },
    {
      "inputs": [
        {
          "internalType": "address",
          "name": "newOwner",
          "type": "address"
        }
      ],
      "name": "transferOwnership",
      "outputs": [],
      "stateMutability": "nonpayable",
      "type": "function"
    },
    {
      "inputs": [
        {
          "internalType": "uint256",
          "name": "newPrice",
          "type": "uint256"
        }
      ],
      "name": "setListingPrice",
      "outputs": [],
      "stateMutability": "nonpayable",
      "type": "function"
    },
    {
      "inputs": [
        {
          "internalType": "string",
          "name": "tokenURI",
          "type": "string"
        },
        {
          "internalType": "uint256",
          "name": "price",
          "type": "uint256"
        }
      ],
      "name": "mint",
      "outputs": [
        {
          "internalType": "uint256",
          "name": "",
          "type": "uint256"
        }
      ],
      "stateMutability": "payable",
      "type": "function",
      "payable": true
    },
    {
      "inputs": [
        {
          "internalType": "uint256",
          "name": "tokenId",
          "type": "uint256"
        }
      ],
      "name": "buyNft",
      "outputs": [],
      "stateMutability": "payable",
      "type": "function",
      "payable": true
    },
    {
      "inputs": [
        {
          "internalType": "uint256",
          "name": "tokenId",
          "type": "uint256"
        },
        {
          "internalType": "uint256",
          "name": "newPrice",
          "type": "uint256"
        }
      ],
      "name": "PlaceNftOnsale",
      "outputs": [],
      "stateMutability": "payable",
      "type": "function",
      "payable": true
    },
    {
      "inputs": [],
      "name": "totalSupply",
      "outputs": [
        {
          "internalType": "uint256",
          "name": "",
          "type": "uint256"
        }
      ],
      "stateMutability": "view",
      "type": "function",
      "constant": true
    },
    {
      "inputs": [
        {
          "internalType": "uint256",
          "name": "index",
          "type": "uint256"
        }
      ],
      "name": "tokenByIndex",
      "outputs": [
        {
          "internalType": "uint256",
          "name": "",
          "type": "uint256"
        }
      ],
      "stateMutability": "view",
      "type": "function",
      "constant": true
    },
    {
      "inputs": [
        {
          "internalType": "address",
          "name": "owner",
          "type": "address"
        },
        {
          "internalType": "uint256",
          "name": "index",
          "type": "uint256"
        }
      ],
      "name": "tokenOfOwnerByIndex",
      "outputs": [
        {
          "internalType": "uint256",
          "name": "",
          "type": "uint256"
        }
      ],
      "stateMutability": "view",
      "type": "function",
      "constant": true
    },
    {
      "inputs": [],
      "name": "getOwnedNfts",
      "outputs": [
        {
          "components": [
            {
              "internalType": "uint256",
              "name": "tokenId",
              "type": "uint256"
            },
            {
              "internalType": "uint256",
              "name": "price",
              "type": "uint256"
            },
            {
              "internalType": "address",
              "name": "creator",
              "type": "address"
            },
            {
              "internalType": "bool",
              "name": "isListed",
              "type": "bool"
            }
          ],
          "internalType": "struct MainContract.NftItem[]",
          "name": "",
          "type": "tuple[]"
        }
      ],
      "stateMutability": "view",
      "type": "function",
      "constant": true
    },
    {
      "inputs": [],
      "name": "getAllNftOnSale",
      "outputs": [
        {
          "components": [
            {
              "internalType": "uint256",
              "name": "tokenId",
              "type": "uint256"
            },
            {
              "internalType": "uint256",
              "name": "price",
              "type": "uint256"
            },
            {
              "internalType": "address",
              "name": "creator",
              "type": "address"
            },
            {
              "internalType": "bool",
              "name": "isListed",
              "type": "bool"
            }
          ],
          "internalType": "struct MainContract.NftItem[]",
          "name": "",
          "type": "tuple[]"
        }
      ],
      "stateMutability": "view",
      "type": "function",
      "constant": true
    },
    {
      "inputs": [
        {
          "internalType": "address",
          "name": "from",
          "type": "address"
        },
        {
          "internalType": "uint256",
          "name": "tokenId",
          "type": "uint256"
        }
      ],
      "name": "removeTokenFromOwnerEnumeration",
      "outputs": [],
      "stateMutability": "nonpayable",
      "type": "function"
    },
    {
      "inputs": [
        {
          "internalType": "uint256",
          "name": "tokenId",
          "type": "uint256"
        }
      ],
      "name": "getNftItem",
      "outputs": [
        {
          "components": [
            {
              "internalType": "uint256",
              "name": "tokenId",
              "type": "uint256"
            },
            {
              "internalType": "uint256",
              "name": "price",
              "type": "uint256"
            },
            {
              "internalType": "address",
              "name": "creator",
              "type": "address"
            },
            {
              "internalType": "bool",
              "name": "isListed",
              "type": "bool"
            }
          ],
          "internalType": "struct MainContract.NftItem",
          "name": "",
          "type": "tuple"
        }
      ],
      "stateMutability": "view",
      "type": "function",
      "constant": true
    },
    {
      "inputs": [],
      "name": "getListedItemCount",
      "outputs": [
        {
          "internalType": "uint256",
          "name": "",
          "type": "uint256"
        }
      ],
      "stateMutability": "view",
      "type": "function",
      "constant": true
    },
    {
      "inputs": [
        {
          "internalType": "string",
          "name": "tokenURI",
          "type": "string"
        }
      ],
      "name": "tokenURIExists",
      "outputs": [
        {
          "internalType": "bool",
          "name": "",
          "type": "bool"
        }
      ],
      "stateMutability": "view",
      "type": "function",
      "constant": true
    }
  ],
  "bytecode": "0x60806040526658d15e17628000600a553480156200001c57600080fd5b506040518060400160405280600881526020017f477265656e4e66740000000000000000000000000000000000000000000000008152506040518060400160405280600581526020017f20474e46540000000000000000000000000000000000000000000000000000008152508160009080519060200190620000a1929190620001b1565b508060019080519060200190620000ba929190620001b1565b505050620000dd620000d1620000e360201b60201c565b620000eb60201b60201c565b620002c6565b600033905090565b6000600760009054906101000a900473ffffffffffffffffffffffffffffffffffffffff16905081600760006101000a81548173ffffffffffffffffffffffffffffffffffffffff021916908373ffffffffffffffffffffffffffffffffffffffff1602179055508173ffffffffffffffffffffffffffffffffffffffff168173ffffffffffffffffffffffffffffffffffffffff167f8be0079c531659141344cd1fd0a4f28419497f9722a3daafe3b4186f6b6457e060405160405180910390a35050565b828054620001bf9062000290565b90600052602060002090601f016020900481019282620001e357600085556200022f565b82601f10620001fe57805160ff19168380011785556200022f565b828001600101855582156200022f579182015b828111156200022e57825182559160200191906001019062000211565b5b5090506200023e919062000242565b5090565b5b808211156200025d57600081600090555060010162000243565b5090565b7f4e487b7100000000000000000000000000000000000000000000000000000000600052602260045260246000fd5b60006002820490506001821680620002a957607f821691505b60208210811415620002c057620002bf62000261565b5b50919050565b614a2d80620002d66000396000f3fe6080604052600436106101cd5760003560e01c80636352211e116100f757806395d89b4111610095578063c87b56dd11610064578063c87b56dd14610685578063e985e9c5146106c2578063eb3d009c146106ff578063f2fde38b1461072a576101cd565b806395d89b41146105dd578063a22cb46514610608578063b88d4fde14610631578063c78f19f91461065a576101cd565b806370cbcb43116100d157806370cbcb4314610547578063715018a6146105725780637c726b69146105895780638da5cb5b146105b2576101cd565b80636352211e146104905780636f1a0af5146104cd57806370a082311461050a576101cd565b8063243adbdd1161016f57806342842e0e1161013e57806342842e0e146103c257806343d32ae7146103eb5780634409b469146104285780634f6ccce714610453576101cd565b8063243adbdd146103245780632f745c59146103405780633f4b26af1461037d578063404b6e9f14610399576101cd565b8063081812fc116101ab578063081812fc1461026a578063095ea7b3146102a757806318160ddd146102d057806323b872dd146102fb576101cd565b806301ffc9a7146101d2578063056b01ce1461020f57806306fdde031461023f575b600080fd5b3480156101de57600080fd5b506101f960048036038101906101f4919061312e565b610753565b6040516102069190613176565b60405180910390f35b6102296004803603810190610224919061330d565b610835565b6040516102369190613378565b60405180910390f35b34801561024b57600080fd5b50610254610945565b604051610261919061341b565b60405180910390f35b34801561027657600080fd5b50610291600480360381019061028c919061343d565b6109d7565b60405161029e91906134ab565b60405180910390f35b3480156102b357600080fd5b506102ce60048036038101906102c991906134f2565b610a1d565b005b3480156102dc57600080fd5b506102e5610b35565b6040516102f29190613378565b60405180910390f35b34801561030757600080fd5b50610322600480360381019061031d9190613532565b610b42565b005b61033e6004803603810190610339919061343d565b610ba2565b005b34801561034c57600080fd5b50610367600480360381019061036291906134f2565b610d0b565b6040516103749190613378565b60405180910390f35b61039760048036038101906103929190613585565b610db0565b005b3480156103a557600080fd5b506103c060048036038101906103bb91906134f2565b610f2c565b005b3480156103ce57600080fd5b506103e960048036038101906103e49190613532565b611099565b005b3480156103f757600080fd5b50610412600480360381019061040d91906135c5565b6110b9565b60405161041f9190613176565b60405180910390f35b34801561043457600080fd5b5061043d6110f5565b60405161044a9190613378565b60405180910390f35b34801561045f57600080fd5b5061047a6004803603810190610475919061343d565b611106565b6040516104879190613378565b60405180910390f35b34801561049c57600080fd5b506104b760048036038101906104b2919061343d565b611177565b6040516104c491906134ab565b60405180910390f35b3480156104d957600080fd5b506104f460048036038101906104ef919061343d565b6111fe565b6040516105019190613690565b60405180910390f35b34801561051657600080fd5b50610531600480360381019061052c91906136ab565b6112b0565b60405161053e9190613378565b60405180910390f35b34801561055357600080fd5b5061055c611368565b60405161056991906137dc565b60405180910390f35b34801561057e57600080fd5b506105876114cc565b005b34801561059557600080fd5b506105b060048036038101906105ab919061343d565b6114e0565b005b3480156105be57600080fd5b506105c7611535565b6040516105d491906134ab565b60405180910390f35b3480156105e957600080fd5b506105f261155f565b6040516105ff919061341b565b60405180910390f35b34801561061457600080fd5b5061062f600480360381019061062a919061382a565b6115f1565b005b34801561063d57600080fd5b506106586004803603810190610653919061390b565b611607565b005b34801561066657600080fd5b5061066f611669565b60405161067c9190613378565b60405180910390f35b34801561069157600080fd5b506106ac60048036038101906106a7919061343d565b61166f565b6040516106b9919061341b565b60405180910390f35b3480156106ce57600080fd5b506106e960048036038101906106e4919061398e565b611782565b6040516106f69190613176565b60405180910390f35b34801561070b57600080fd5b50610714611816565b60405161072191906137dc565b60405180910390f35b34801561073657600080fd5b50610751600480360381019061074c91906136ab565b6119b1565b005b60007f80ac58cd000000000000000000000000000000000000000000000000000000007bffffffffffffffffffffffffffffffffffffffffffffffffffffffff1916827bffffffffffffffffffffffffffffffffffffffffffffffffffffffff1916148061081e57507f5b5e139f000000000000000000000000000000000000000000000000000000007bffffffffffffffffffffffffffffffffffffffffffffffffffffffff1916827bffffffffffffffffffffffffffffffffffffffffffffffffffffffff1916145b8061082e575061082d82611a35565b5b9050919050565b6000610840836110b9565b15610880576040517f08c379a000000000000000000000000000000000000000000000000000000000815260040161087790613a1a565b60405180910390fd5b600a5434146108c4576040517f08c379a00000000000000000000000000000000000000000000000000000000081526004016108bb90613aac565b60405180910390fd5b6108ce600c611a9f565b6108d8600b611a9f565b60006108e4600c611ab5565b90506108f03382611ac3565b6108fa8185611ae1565b6001600d8560405161090c9190613b08565b908152602001604051809103902060006101000a81548160ff02191690831515021790555061093b8184611b55565b8091505092915050565b60606000805461095490613b4e565b80601f016020809104026020016040519081016040528092919081815260200182805461098090613b4e565b80156109cd5780601f106109a2576101008083540402835291602001916109cd565b820191906000526020600020905b8154815290600101906020018083116109b057829003601f168201915b5050505050905090565b60006109e282611ca5565b6004600083815260200190815260200160002060009054906101000a900473ffffffffffffffffffffffffffffffffffffffff169050919050565b6000610a2882611177565b90508073ffffffffffffffffffffffffffffffffffffffff168373ffffffffffffffffffffffffffffffffffffffff161415610a99576040517f08c379a0000000000000000000000000000000000000000000000000000000008152600401610a9090613bf2565b60405180910390fd5b8073ffffffffffffffffffffffffffffffffffffffff16610ab8611cf0565b73ffffffffffffffffffffffffffffffffffffffff161480610ae75750610ae681610ae1611cf0565b611782565b5b610b26576040517f08c379a0000000000000000000000000000000000000000000000000000000008152600401610b1d90613c84565b60405180910390fd5b610b308383611cf8565b505050565b6000600880549050905090565b610b53610b4d611cf0565b82611db1565b610b92576040517f08c379a0000000000000000000000000000000000000000000000000000000008152600401610b8990613d16565b60405180910390fd5b610b9d838383611e46565b505050565b6000600e60008381526020019081526020016000206001015490506000610bc883611177565b90508073ffffffffffffffffffffffffffffffffffffffff163373ffffffffffffffffffffffffffffffffffffffff161415610c39576040517f08c379a0000000000000000000000000000000000000000000000000000000008152600401610c3090613d82565b60405180910390fd5b813414610c7b576040517f08c379a0000000000000000000000000000000000000000000000000000000008152600401610c7290613dee565b60405180910390fd5b6000600e600085815260200190815260200160002060020160146101000a81548160ff021916908315150217905550610cb4600b612140565b610cbf813385611e46565b8073ffffffffffffffffffffffffffffffffffffffff166108fc349081150290604051600060405180830381858888f19350505050158015610d05573d6000803e3d6000fd5b50505050565b6000610d16836112b0565b8210610d57576040517f08c379a0000000000000000000000000000000000000000000000000000000008152600401610d4e90613e5a565b60405180910390fd5b600f60008473ffffffffffffffffffffffffffffffffffffffff1673ffffffffffffffffffffffffffffffffffffffff168152602001908152602001600020600083815260200190815260200160002054905092915050565b3373ffffffffffffffffffffffffffffffffffffffff16610dd083611177565b73ffffffffffffffffffffffffffffffffffffffff1614610e26576040517f08c379a0000000000000000000000000000000000000000000000000000000008152600401610e1d90613ec6565b60405180910390fd5b60001515600e600084815260200190815260200160002060020160149054906101000a900460ff16151514610e90576040517f08c379a0000000000000000000000000000000000000000000000000000000008152600401610e8790613f32565b60405180910390fd5b600a543414610ed4576040517f08c379a0000000000000000000000000000000000000000000000000000000008152600401610ecb90613fc4565b60405180910390fd5b6001600e600084815260200190815260200160002060020160146101000a81548160ff02191690831515021790555080600e600084815260200190815260200160002060010181905550610f28600b611a9f565b5050565b60006001610f39846112b0565b610f439190614013565b9050600060106000848152602001908152602001600020549050818114611028576000600f60008673ffffffffffffffffffffffffffffffffffffffff1673ffffffffffffffffffffffffffffffffffffffff168152602001908152602001600020600084815260200190815260200160002054905080600f60008773ffffffffffffffffffffffffffffffffffffffff1673ffffffffffffffffffffffffffffffffffffffff168152602001908152602001600020600084815260200190815260200160002081905550816010600083815260200190815260200160002081905550505b6010600084815260200190815260200160002060009055600f60008573ffffffffffffffffffffffffffffffffffffffff1673ffffffffffffffffffffffffffffffffffffffff16815260200190815260200160002060008381526020019081526020016000206000905550505050565b6110b483838360405180602001604052806000815250611607565b505050565b600060011515600d836040516110cf9190613b08565b908152602001604051809103902060009054906101000a900460ff161515149050919050565b6000611101600b611ab5565b905090565b6000611110610b35565b8210611151576040517f08c379a000000000000000000000000000000000000000000000000000000000815260040161114890614093565b60405180910390fd5b60088281548110611165576111646140b3565b5b90600052602060002001549050919050565b6000806111838361219c565b9050600073ffffffffffffffffffffffffffffffffffffffff168173ffffffffffffffffffffffffffffffffffffffff1614156111f5576040517f08c379a00000000000000000000000000000000000000000000000000000000081526004016111ec9061412e565b60405180910390fd5b80915050919050565b611206612fdf565b600e600083815260200190815260200160002060405180608001604052908160008201548152602001600182015481526020016002820160009054906101000a900473ffffffffffffffffffffffffffffffffffffffff1673ffffffffffffffffffffffffffffffffffffffff1673ffffffffffffffffffffffffffffffffffffffff1681526020016002820160149054906101000a900460ff1615151515815250509050919050565b60008073ffffffffffffffffffffffffffffffffffffffff168273ffffffffffffffffffffffffffffffffffffffff161415611321576040517f08c379a0000000000000000000000000000000000000000000000000000000008152600401611318906141c0565b60405180910390fd5b600360008373ffffffffffffffffffffffffffffffffffffffff1673ffffffffffffffffffffffffffffffffffffffff168152602001908152602001600020549050919050565b60606000611375336112b0565b905060008167ffffffffffffffff811115611393576113926131ac565b5b6040519080825280602002602001820160405280156113cc57816020015b6113b9612fdf565b8152602001906001900390816113b15790505b50905060005b828110156114c35760006113e63383610d0b565b90506000600e600083815260200190815260200160002090508060405180608001604052908160008201548152602001600182015481526020016002820160009054906101000a900473ffffffffffffffffffffffffffffffffffffffff1673ffffffffffffffffffffffffffffffffffffffff1673ffffffffffffffffffffffffffffffffffffffff1681526020016002820160149054906101000a900460ff1615151515815250508484815181106114a3576114a26140b3565b5b6020026020010181905250505080806114bb906141e0565b9150506113d2565b50809250505090565b6114d46121d9565b6114de6000612257565b565b6114e86121d9565b6000811161152b576040517f08c379a000000000000000000000000000000000000000000000000000000000815260040161152290614275565b60405180910390fd5b80600a8190555050565b6000600760009054906101000a900473ffffffffffffffffffffffffffffffffffffffff16905090565b60606001805461156e90613b4e565b80601f016020809104026020016040519081016040528092919081815260200182805461159a90613b4e565b80156115e75780601f106115bc576101008083540402835291602001916115e7565b820191906000526020600020905b8154815290600101906020018083116115ca57829003601f168201915b5050505050905090565b6116036115fc611cf0565b838361231d565b5050565b611618611612611cf0565b83611db1565b611657576040517f08c379a000000000000000000000000000000000000000000000000000000000815260040161164e90613d16565b60405180910390fd5b6116638484848461248a565b50505050565b600a5481565b606061167a82611ca5565b600060066000848152602001908152602001600020805461169a90613b4e565b80601f01602080910402602001604051908101604052809291908181526020018280546116c690613b4e565b80156117135780601f106116e857610100808354040283529160200191611713565b820191906000526020600020905b8154815290600101906020018083116116f657829003601f168201915b5050505050905060006117246124e6565b905060008151141561173a57819250505061177d565b60008251111561176f578082604051602001611757929190614295565b6040516020818303038152906040529250505061177d565b611778846124fd565b925050505b919050565b6000600560008473ffffffffffffffffffffffffffffffffffffffff1673ffffffffffffffffffffffffffffffffffffffff16815260200190815260200160002060008373ffffffffffffffffffffffffffffffffffffffff1673ffffffffffffffffffffffffffffffffffffffff16815260200190815260200160002060009054906101000a900460ff16905092915050565b60606000611822610b35565b9050600080611831600b611ab5565b67ffffffffffffffff81111561184a576118496131ac565b5b60405190808252806020026020018201604052801561188357816020015b611870612fdf565b8152602001906001900390816118685790505b50905060005b838110156119a757600061189c82611106565b90506000600e60008381526020019081526020016000209050600115158160020160149054906101000a900460ff1615151415611992578060405180608001604052908160008201548152602001600182015481526020016002820160009054906101000a900473ffffffffffffffffffffffffffffffffffffffff1673ffffffffffffffffffffffffffffffffffffffff1673ffffffffffffffffffffffffffffffffffffffff1681526020016002820160149054906101000a900460ff161515151581525050848681518110611977576119766140b3565b5b602002602001018190525060018561198f91906142b9565b94505b5050808061199f906141e0565b915050611889565b5080935050505090565b6119b96121d9565b600073ffffffffffffffffffffffffffffffffffffffff168173ffffffffffffffffffffffffffffffffffffffff161415611a29576040517f08c379a0000000000000000000000000000000000000000000000000000000008152600401611a2090614381565b60405180910390fd5b611a3281612257565b50565b60007f01ffc9a7000000000000000000000000000000000000000000000000000000007bffffffffffffffffffffffffffffffffffffffffffffffffffffffff1916827bffffffffffffffffffffffffffffffffffffffffffffffffffffffff1916149050919050565b6001816000016000828254019250508190555050565b600081600001549050919050565b611add828260405180602001604052806000815250612565565b5050565b611aea826125c0565b611b29576040517f08c379a0000000000000000000000000000000000000000000000000000000008152600401611b2090614413565b60405180910390fd5b80600660008481526020019081526020016000209080519060200190611b5092919061301f565b505050565b60008111611b98576040517f08c379a0000000000000000000000000000000000000000000000000000000008152600401611b8f9061447f565b60405180910390fd5b60405180608001604052808381526020018281526020013373ffffffffffffffffffffffffffffffffffffffff16815260200160011515815250600e6000848152602001908152602001600020600082015181600001556020820151816001015560408201518160020160006101000a81548173ffffffffffffffffffffffffffffffffffffffff021916908373ffffffffffffffffffffffffffffffffffffffff16021790555060608201518160020160146101000a81548160ff0219169083151502179055509050507f470031062672bc0246e132c723a729c4676710ec663a29e86c88678032daddea8282336001604051611c99949392919061449f565b60405180910390a15050565b611cae816125c0565b611ced576040517f08c379a0000000000000000000000000000000000000000000000000000000008152600401611ce49061412e565b60405180910390fd5b50565b600033905090565b816004600083815260200190815260200160002060006101000a81548173ffffffffffffffffffffffffffffffffffffffff021916908373ffffffffffffffffffffffffffffffffffffffff160217905550808273ffffffffffffffffffffffffffffffffffffffff16611d6b83611177565b73ffffffffffffffffffffffffffffffffffffffff167f8c5be1e5ebec7d5bd14f71427d1e84f3dd0314c0f7b2291e5b200ac8c7c3b92560405160405180910390a45050565b600080611dbd83611177565b90508073ffffffffffffffffffffffffffffffffffffffff168473ffffffffffffffffffffffffffffffffffffffff161480611dff5750611dfe8185611782565b5b80611e3d57508373ffffffffffffffffffffffffffffffffffffffff16611e25846109d7565b73ffffffffffffffffffffffffffffffffffffffff16145b91505092915050565b8273ffffffffffffffffffffffffffffffffffffffff16611e6682611177565b73ffffffffffffffffffffffffffffffffffffffff1614611ebc576040517f08c379a0000000000000000000000000000000000000000000000000000000008152600401611eb390614556565b60405180910390fd5b600073ffffffffffffffffffffffffffffffffffffffff168273ffffffffffffffffffffffffffffffffffffffff161415611f2c576040517f08c379a0000000000000000000000000000000000000000000000000000000008152600401611f23906145e8565b60405180910390fd5b611f398383836001612601565b8273ffffffffffffffffffffffffffffffffffffffff16611f5982611177565b73ffffffffffffffffffffffffffffffffffffffff1614611faf576040517f08c379a0000000000000000000000000000000000000000000000000000000008152600401611fa690614556565b60405180910390fd5b6004600082815260200190815260200160002060006101000a81549073ffffffffffffffffffffffffffffffffffffffff02191690556001600360008573ffffffffffffffffffffffffffffffffffffffff1673ffffffffffffffffffffffffffffffffffffffff168152602001908152602001600020600082825403925050819055506001600360008473ffffffffffffffffffffffffffffffffffffffff1673ffffffffffffffffffffffffffffffffffffffff16815260200190815260200160002060008282540192505081905550816002600083815260200190815260200160002060006101000a81548173ffffffffffffffffffffffffffffffffffffffff021916908373ffffffffffffffffffffffffffffffffffffffff160217905550808273ffffffffffffffffffffffffffffffffffffffff168473ffffffffffffffffffffffffffffffffffffffff167fddf252ad1be2c89b69c2b068fc378daa952ba7f163c4a11628f55a4df523b3ef60405160405180910390a461213b8383836001612717565b505050565b6000816000015490506000811161218c576040517f08c379a000000000000000000000000000000000000000000000000000000000815260040161218390614654565b60405180910390fd5b6001810382600001819055505050565b60006002600083815260200190815260200160002060009054906101000a900473ffffffffffffffffffffffffffffffffffffffff169050919050565b6121e1611cf0565b73ffffffffffffffffffffffffffffffffffffffff166121ff611535565b73ffffffffffffffffffffffffffffffffffffffff1614612255576040517f08c379a000000000000000000000000000000000000000000000000000000000815260040161224c906146c0565b60405180910390fd5b565b6000600760009054906101000a900473ffffffffffffffffffffffffffffffffffffffff16905081600760006101000a81548173ffffffffffffffffffffffffffffffffffffffff021916908373ffffffffffffffffffffffffffffffffffffffff1602179055508173ffffffffffffffffffffffffffffffffffffffff168173ffffffffffffffffffffffffffffffffffffffff167f8be0079c531659141344cd1fd0a4f28419497f9722a3daafe3b4186f6b6457e060405160405180910390a35050565b8173ffffffffffffffffffffffffffffffffffffffff168373ffffffffffffffffffffffffffffffffffffffff16141561238c576040517f08c379a00000000000000000000000000000000000000000000000000000000081526004016123839061472c565b60405180910390fd5b80600560008573ffffffffffffffffffffffffffffffffffffffff1673ffffffffffffffffffffffffffffffffffffffff16815260200190815260200160002060008473ffffffffffffffffffffffffffffffffffffffff1673ffffffffffffffffffffffffffffffffffffffff16815260200190815260200160002060006101000a81548160ff0219169083151502179055508173ffffffffffffffffffffffffffffffffffffffff168373ffffffffffffffffffffffffffffffffffffffff167f17307eab39ab6107e8899845ad3d59bd9653f200f220920489ca2b5937696c318360405161247d9190613176565b60405180910390a3505050565b612495848484611e46565b6124a18484848461271d565b6124e0576040517f08c379a00000000000000000000000000000000000000000000000000000000081526004016124d7906147be565b60405180910390fd5b50505050565b606060405180602001604052806000815250905090565b606061250882611ca5565b60006125126124e6565b90506000815111612532576040518060200160405280600081525061255d565b8061253c846128b4565b60405160200161254d929190614295565b6040516020818303038152906040525b915050919050565b61256f838361298c565b61257c600084848461271d565b6125bb576040517f08c379a00000000000000000000000000000000000000000000000000000000081526004016125b2906147be565b60405180910390fd5b505050565b60008073ffffffffffffffffffffffffffffffffffffffff166125e28361219c565b73ffffffffffffffffffffffffffffffffffffffff1614159050919050565b61260d84848484612baa565b600073ffffffffffffffffffffffffffffffffffffffff168473ffffffffffffffffffffffffffffffffffffffff1614156126505761264b82612cd0565b61268f565b8273ffffffffffffffffffffffffffffffffffffffff168473ffffffffffffffffffffffffffffffffffffffff161461268e5761268d8483610f2c565b5b5b600073ffffffffffffffffffffffffffffffffffffffff168373ffffffffffffffffffffffffffffffffffffffff1614156126d2576126cd82612d19565b612711565b8373ffffffffffffffffffffffffffffffffffffffff168373ffffffffffffffffffffffffffffffffffffffff16146127105761270f8383612dea565b5b5b50505050565b50505050565b600061273e8473ffffffffffffffffffffffffffffffffffffffff16612e69565b156128a7578373ffffffffffffffffffffffffffffffffffffffff1663150b7a02612767611cf0565b8786866040518563ffffffff1660e01b81526004016127899493929190614833565b602060405180830381600087803b1580156127a357600080fd5b505af19250505080156127d457506040513d601f19601f820116820180604052508101906127d19190614894565b60015b612857573d8060008114612804576040519150601f19603f3d011682016040523d82523d6000602084013e612809565b606091505b5060008151141561284f576040517f08c379a0000000000000000000000000000000000000000000000000000000008152600401612846906147be565b60405180910390fd5b805181602001fd5b63150b7a0260e01b7bffffffffffffffffffffffffffffffffffffffffffffffffffffffff1916817bffffffffffffffffffffffffffffffffffffffffffffffffffffffff1916149150506128ac565b600190505b949350505050565b6060600060016128c384612e8c565b01905060008167ffffffffffffffff8111156128e2576128e16131ac565b5b6040519080825280601f01601f1916602001820160405280156129145781602001600182028036833780820191505090505b509050600082602001820190505b600115612981578080600190039150507f3031323334353637383961626364656600000000000000000000000000000000600a86061a8153600a858161296b5761296a6148c1565b5b049450600085141561297c57612981565b612922565b819350505050919050565b600073ffffffffffffffffffffffffffffffffffffffff168273ffffffffffffffffffffffffffffffffffffffff1614156129fc576040517f08c379a00000000000000000000000000000000000000000000000000000000081526004016129f39061493c565b60405180910390fd5b612a05816125c0565b15612a45576040517f08c379a0000000000000000000000000000000000000000000000000000000008152600401612a3c906149a8565b60405180910390fd5b612a53600083836001612601565b612a5c816125c0565b15612a9c576040517f08c379a0000000000000000000000000000000000000000000000000000000008152600401612a93906149a8565b60405180910390fd5b6001600360008473ffffffffffffffffffffffffffffffffffffffff1673ffffffffffffffffffffffffffffffffffffffff16815260200190815260200160002060008282540192505081905550816002600083815260200190815260200160002060006101000a81548173ffffffffffffffffffffffffffffffffffffffff021916908373ffffffffffffffffffffffffffffffffffffffff160217905550808273ffffffffffffffffffffffffffffffffffffffff16600073ffffffffffffffffffffffffffffffffffffffff167fddf252ad1be2c89b69c2b068fc378daa952ba7f163c4a11628f55a4df523b3ef60405160405180910390a4612ba6600083836001612717565b5050565b6001811115612cca57600073ffffffffffffffffffffffffffffffffffffffff168473ffffffffffffffffffffffffffffffffffffffff1614612c3e5780600360008673ffffffffffffffffffffffffffffffffffffffff1673ffffffffffffffffffffffffffffffffffffffff1681526020019081526020016000206000828254612c369190614013565b925050819055505b600073ffffffffffffffffffffffffffffffffffffffff168373ffffffffffffffffffffffffffffffffffffffff1614612cc95780600360008573ffffffffffffffffffffffffffffffffffffffff1673ffffffffffffffffffffffffffffffffffffffff1681526020019081526020016000206000828254612cc191906142b9565b925050819055505b5b50505050565b6008805490506009600083815260200190815260200160002081905550600881908060018154018082558091505060019003906000526020600020016000909190919091505550565b60006001600880549050612d2d9190614013565b9050600060096000848152602001908152602001600020549050600060088381548110612d5d57612d5c6140b3565b5b906000526020600020015490508060088381548110612d7f57612d7e6140b3565b5b906000526020600020018190555081600960008381526020019081526020016000208190555060096000858152602001908152602001600020600090556008805480612dce57612dcd6149c8565b5b6001900381819060005260206000200160009055905550505050565b6000612df5836112b0565b905081600f60008573ffffffffffffffffffffffffffffffffffffffff1673ffffffffffffffffffffffffffffffffffffffff168152602001908152602001600020600083815260200190815260200160002081905550806010600084815260200190815260200160002081905550505050565b6000808273ffffffffffffffffffffffffffffffffffffffff163b119050919050565b600080600090507a184f03e93ff9f4daa797ed6e38ed64bf6a1f0100000000000000008310612eea577a184f03e93ff9f4daa797ed6e38ed64bf6a1f0100000000000000008381612ee057612edf6148c1565b5b0492506040810190505b6d04ee2d6d415b85acef81000000008310612f27576d04ee2d6d415b85acef81000000008381612f1d57612f1c6148c1565b5b0492506020810190505b662386f26fc100008310612f5657662386f26fc100008381612f4c57612f4b6148c1565b5b0492506010810190505b6305f5e1008310612f7f576305f5e1008381612f7557612f746148c1565b5b0492506008810190505b6127108310612fa4576127108381612f9a57612f996148c1565b5b0492506004810190505b60648310612fc75760648381612fbd57612fbc6148c1565b5b0492506002810190505b600a8310612fd6576001810190505b80915050919050565b60405180608001604052806000815260200160008152602001600073ffffffffffffffffffffffffffffffffffffffff1681526020016000151581525090565b82805461302b90613b4e565b90600052602060002090601f01602090048101928261304d5760008555613094565b82601f1061306657805160ff1916838001178555613094565b82800160010185558215613094579182015b82811115613093578251825591602001919060010190613078565b5b5090506130a191906130a5565b5090565b5b808211156130be5760008160009055506001016130a6565b5090565b6000604051905090565b600080fd5b600080fd5b60007fffffffff0000000000000000000000000000000000000000000000000000000082169050919050565b61310b816130d6565b811461311657600080fd5b50565b60008135905061312881613102565b92915050565b600060208284031215613144576131436130cc565b5b600061315284828501613119565b91505092915050565b60008115159050919050565b6131708161315b565b82525050565b600060208201905061318b6000830184613167565b92915050565b600080fd5b600080fd5b6000601f19601f8301169050919050565b7f4e487b7100000000000000000000000000000000000000000000000000000000600052604160045260246000fd5b6131e48261319b565b810181811067ffffffffffffffff82111715613203576132026131ac565b5b80604052505050565b60006132166130c2565b905061322282826131db565b919050565b600067ffffffffffffffff821115613242576132416131ac565b5b61324b8261319b565b9050602081019050919050565b82818337600083830152505050565b600061327a61327584613227565b61320c565b90508281526020810184848401111561329657613295613196565b5b6132a1848285613258565b509392505050565b600082601f8301126132be576132bd613191565b5b81356132ce848260208601613267565b91505092915050565b6000819050919050565b6132ea816132d7565b81146132f557600080fd5b50565b600081359050613307816132e1565b92915050565b60008060408385031215613324576133236130cc565b5b600083013567ffffffffffffffff811115613342576133416130d1565b5b61334e858286016132a9565b925050602061335f858286016132f8565b9150509250929050565b613372816132d7565b82525050565b600060208201905061338d6000830184613369565b92915050565b600081519050919050565b600082825260208201905092915050565b60005b838110156133cd5780820151818401526020810190506133b2565b838111156133dc576000848401525b50505050565b60006133ed82613393565b6133f7818561339e565b93506134078185602086016133af565b6134108161319b565b840191505092915050565b6000602082019050818103600083015261343581846133e2565b905092915050565b600060208284031215613453576134526130cc565b5b6000613461848285016132f8565b91505092915050565b600073ffffffffffffffffffffffffffffffffffffffff82169050919050565b60006134958261346a565b9050919050565b6134a58161348a565b82525050565b60006020820190506134c0600083018461349c565b92915050565b6134cf8161348a565b81146134da57600080fd5b50565b6000813590506134ec816134c6565b92915050565b60008060408385031215613509576135086130cc565b5b6000613517858286016134dd565b9250506020613528858286016132f8565b9150509250929050565b60008060006060848603121561354b5761354a6130cc565b5b6000613559868287016134dd565b935050602061356a868287016134dd565b925050604061357b868287016132f8565b9150509250925092565b6000806040838503121561359c5761359b6130cc565b5b60006135aa858286016132f8565b92505060206135bb858286016132f8565b9150509250929050565b6000602082840312156135db576135da6130cc565b5b600082013567ffffffffffffffff8111156135f9576135f86130d1565b5b613605848285016132a9565b91505092915050565b613617816132d7565b82525050565b6136268161348a565b82525050565b6136358161315b565b82525050565b608082016000820151613651600085018261360e565b506020820151613664602085018261360e565b506040820151613677604085018261361d565b50606082015161368a606085018261362c565b50505050565b60006080820190506136a5600083018461363b565b92915050565b6000602082840312156136c1576136c06130cc565b5b60006136cf848285016134dd565b91505092915050565b600081519050919050565b600082825260208201905092915050565b6000819050602082019050919050565b60808201600082015161371a600085018261360e565b50602082015161372d602085018261360e565b506040820151613740604085018261361d565b506060820151613753606085018261362c565b50505050565b60006137658383613704565b60808301905092915050565b6000602082019050919050565b6000613789826136d8565b61379381856136e3565b935061379e836136f4565b8060005b838110156137cf5781516137b68882613759565b97506137c183613771565b9250506001810190506137a2565b5085935050505092915050565b600060208201905081810360008301526137f6818461377e565b905092915050565b6138078161315b565b811461381257600080fd5b50565b600081359050613824816137fe565b92915050565b60008060408385031215613841576138406130cc565b5b600061384f858286016134dd565b925050602061386085828601613815565b9150509250929050565b600067ffffffffffffffff821115613885576138846131ac565b5b61388e8261319b565b9050602081019050919050565b60006138ae6138a98461386a565b61320c565b9050828152602081018484840111156138ca576138c9613196565b5b6138d5848285613258565b509392505050565b600082601f8301126138f2576138f1613191565b5b813561390284826020860161389b565b91505092915050565b60008060008060808587031215613925576139246130cc565b5b6000613933878288016134dd565b9450506020613944878288016134dd565b9350506040613955878288016132f8565b925050606085013567ffffffffffffffff811115613976576139756130d1565b5b613982878288016138dd565b91505092959194509250565b600080604083850312156139a5576139a46130cc565b5b60006139b3858286016134dd565b92505060206139c4858286016134dd565b9150509250929050565b7f546f6b656e2055524920616c7265616479204578697374730000000000000000600082015250565b6000613a0460188361339e565b9150613a0f826139ce565b602082019050919050565b60006020820190508181036000830152613a33816139f7565b9050919050565b7f207072696365206d75737420626520657175616c20746f206c697374696e675060008201527f7269636500000000000000000000000000000000000000000000000000000000602082015250565b6000613a9660248361339e565b9150613aa182613a3a565b604082019050919050565b60006020820190508181036000830152613ac581613a89565b9050919050565b600081905092915050565b6000613ae282613393565b613aec8185613acc565b9350613afc8185602086016133af565b80840191505092915050565b6000613b148284613ad7565b915081905092915050565b7f4e487b7100000000000000000000000000000000000000000000000000000000600052602260045260246000fd5b60006002820490506001821680613b6657607f821691505b60208210811415613b7a57613b79613b1f565b5b50919050565b7f4552433732313a20617070726f76616c20746f2063757272656e74206f776e6560008201527f7200000000000000000000000000000000000000000000000000000000000000602082015250565b6000613bdc60218361339e565b9150613be782613b80565b604082019050919050565b60006020820190508181036000830152613c0b81613bcf565b9050919050565b7f4552433732313a20617070726f76652063616c6c6572206973206e6f7420746f60008201527f6b656e206f776e6572206f7220617070726f76656420666f7220616c6c000000602082015250565b6000613c6e603d8361339e565b9150613c7982613c12565b604082019050919050565b60006020820190508181036000830152613c9d81613c61565b9050919050565b7f4552433732313a2063616c6c6572206973206e6f7420746f6b656e206f776e6560008201527f72206f7220617070726f76656400000000000000000000000000000000000000602082015250565b6000613d00602d8361339e565b9150613d0b82613ca4565b604082019050919050565b60006020820190508181036000830152613d2f81613cf3565b9050919050565b7f7520616c7265616479206f776e2074686973204e667400000000000000000000600082015250565b6000613d6c60168361339e565b9150613d7782613d36565b602082019050919050565b60006020820190508181036000830152613d9b81613d5f565b9050919050565b7f706c656173652073756d626d6974207468652061736b696e6720707269636500600082015250565b6000613dd8601f8361339e565b9150613de382613da2565b602082019050919050565b60006020820190508181036000830152613e0781613dcb565b9050919050565b7f696e646578206f7574206f6620626f756e647300000000000000000000000000600082015250565b6000613e4460138361339e565b9150613e4f82613e0e565b602082019050919050565b60006020820190508181036000830152613e7381613e37565b9050919050565b7f596f7520617265206e6f74206f776e6572206f662074686973204e6674000000600082015250565b6000613eb0601d8361339e565b9150613ebb82613e7a565b602082019050919050565b60006020820190508181036000830152613edf81613ea3565b9050919050565b7f4974656d20697320616c7265616479206f6e2073616c65000000000000000000600082015250565b6000613f1c60178361339e565b9150613f2782613ee6565b602082019050919050565b60006020820190508181036000830152613f4b81613f0f565b9050919050565b7f7072696365206d75737420626520657175616c20746f206c697374696e67207060008201527f7269636500000000000000000000000000000000000000000000000000000000602082015250565b6000613fae60248361339e565b9150613fb982613f52565b604082019050919050565b60006020820190508181036000830152613fdd81613fa1565b9050919050565b7f4e487b7100000000000000000000000000000000000000000000000000000000600052601160045260246000fd5b600061401e826132d7565b9150614029836132d7565b92508282101561403c5761403b613fe4565b5b828203905092915050565b7f20496e646578206f7574206f662074686520626f756e64730000000000000000600082015250565b600061407d60188361339e565b915061408882614047565b602082019050919050565b600060208201905081810360008301526140ac81614070565b9050919050565b7f4e487b7100000000000000000000000000000000000000000000000000000000600052603260045260246000fd5b7f4552433732313a20696e76616c696420746f6b656e2049440000000000000000600082015250565b600061411860188361339e565b9150614123826140e2565b602082019050919050565b600060208201905081810360008301526141478161410b565b9050919050565b7f4552433732313a2061646472657373207a65726f206973206e6f74206120766160008201527f6c6964206f776e65720000000000000000000000000000000000000000000000602082015250565b60006141aa60298361339e565b91506141b58261414e565b604082019050919050565b600060208201905081810360008301526141d98161419d565b9050919050565b60006141eb826132d7565b91507fffffffffffffffffffffffffffffffffffffffffffffffffffffffffffffffff82141561421e5761421d613fe4565b5b600182019050919050565b7f207072696365206d757374206265206174206c65617374203120776569000000600082015250565b600061425f601d8361339e565b915061426a82614229565b602082019050919050565b6000602082019050818103600083015261428e81614252565b9050919050565b60006142a18285613ad7565b91506142ad8284613ad7565b91508190509392505050565b60006142c4826132d7565b91506142cf836132d7565b9250827fffffffffffffffffffffffffffffffffffffffffffffffffffffffffffffffff0382111561430457614303613fe4565b5b828201905092915050565b7f4f776e61626c653a206e6577206f776e657220697320746865207a65726f206160008201527f6464726573730000000000000000000000000000000000000000000000000000602082015250565b600061436b60268361339e565b91506143768261430f565b604082019050919050565b6000602082019050818103600083015261439a8161435e565b9050919050565b7f45524337323155524953746f726167653a2055524920736574206f66206e6f6e60008201527f6578697374656e7420746f6b656e000000000000000000000000000000000000602082015250565b60006143fd602e8361339e565b9150614408826143a1565b604082019050919050565b6000602082019050818103600083015261442c816143f0565b9050919050565b7f2070726963652073686f756c64206265206c6561737420312077656920000000600082015250565b6000614469601d8361339e565b915061447482614433565b602082019050919050565b600060208201905081810360008301526144988161445c565b9050919050565b60006080820190506144b46000830187613369565b6144c16020830186613369565b6144ce604083018561349c565b6144db6060830184613167565b95945050505050565b7f4552433732313a207472616e736665722066726f6d20696e636f72726563742060008201527f6f776e6572000000000000000000000000000000000000000000000000000000602082015250565b600061454060258361339e565b915061454b826144e4565b604082019050919050565b6000602082019050818103600083015261456f81614533565b9050919050565b7f4552433732313a207472616e7366657220746f20746865207a65726f2061646460008201527f7265737300000000000000000000000000000000000000000000000000000000602082015250565b60006145d260248361339e565b91506145dd82614576565b604082019050919050565b60006020820190508181036000830152614601816145c5565b9050919050565b7f436f756e7465723a2064656372656d656e74206f766572666c6f770000000000600082015250565b600061463e601b8361339e565b915061464982614608565b602082019050919050565b6000602082019050818103600083015261466d81614631565b9050919050565b7f4f776e61626c653a2063616c6c6572206973206e6f7420746865206f776e6572600082015250565b60006146aa60208361339e565b91506146b582614674565b602082019050919050565b600060208201905081810360008301526146d98161469d565b9050919050565b7f4552433732313a20617070726f766520746f2063616c6c657200000000000000600082015250565b600061471660198361339e565b9150614721826146e0565b602082019050919050565b6000602082019050818103600083015261474581614709565b9050919050565b7f4552433732313a207472616e7366657220746f206e6f6e20455243373231526560008201527f63656976657220696d706c656d656e7465720000000000000000000000000000602082015250565b60006147a860328361339e565b91506147b38261474c565b604082019050919050565b600060208201905081810360008301526147d78161479b565b9050919050565b600081519050919050565b600082825260208201905092915050565b6000614805826147de565b61480f81856147e9565b935061481f8185602086016133af565b6148288161319b565b840191505092915050565b6000608082019050614848600083018761349c565b614855602083018661349c565b6148626040830185613369565b818103606083015261487481846147fa565b905095945050505050565b60008151905061488e81613102565b92915050565b6000602082840312156148aa576148a96130cc565b5b60006148b88482850161487f565b91505092915050565b7f4e487b7100000000000000000000000000000000000000000000000000000000600052601260045260246000fd5b7f4552433732313a206d696e7420746f20746865207a65726f2061646472657373600082015250565b600061492660208361339e565b9150614931826148f0565b602082019050919050565b6000602082019050818103600083015261495581614919565b9050919050565b7f4552433732313a20746f6b656e20616c7265616479206d696e74656400000000600082015250565b6000614992601c8361339e565b915061499d8261495c565b602082019050919050565b600060208201905081810360008301526149c181614985565b9050919050565b7f4e487b7100000000000000000000000000000000000000000000000000000000600052603160045260246000fdfea2646970667358221220bfbc50204f776be06ef1587d29dd9b35b0fc32ced9802a1cb2f9a27f7140630064736f6c63430008090033",
  "immutableReferences": {},
  "source": "// SPDX-License-Identifier: MIT\npragma solidity ^0.8.9;\n \n\nimport \"@openzeppelin/contracts/token/ERC721/extensions/ERC721URIStorage.sol\";\n\nimport \"@openzeppelin/contracts/utils/Counters.sol\";\nimport \"@openzeppelin/contracts/access/Ownable.sol\";\n\n\n\ncontract MainContract is ERC721URIStorage,Ownable{\n   using Counters for Counters.Counter;\n\n   // all nfts array\n   uint256[] private _allNft;\n   mapping(uint=>uint)private _idToNftIndex;\n\n\n\n   uint public listingPrice = 0.025 ether;\n   Counters.Counter private _listItem;\n   Counters.Counter private _tokenId;\n\n\n   mapping(string => bool)private usedTokenURI;\n   mapping(uint => NftItem) private _idToNftItem;\n\n\n   mapping(address=>mapping(uint=>uint))private _ownedTokens;\n   mapping(uint=>uint)private _idToOwnedIndex;\n\n\n\n   struct NftItem{\n    uint tokenId;\n    uint price;\n    address creator;\n    bool isListed;\n   }\n\n   event NftItemCreated(\n    uint tokenId,\n    uint price,\n    address creator,\n    bool isListed\n   );\n\n  constructor()ERC721(\"GreenNft\",\" GNFT\"){}\n\n  //function BurnToken(uint tokenId)public {\n    //_burn(tokenId);\n  //}\n\n  function setListingPrice(uint newPrice)external onlyOwner{\n    require(newPrice > 0,\" price must be at least 1 wei\");\n    listingPrice =newPrice;\n  }\n\n  function mint(string memory tokenURI, uint price)public payable returns(uint){\n    require(!tokenURIExists(tokenURI),\"Token URI already Exists\");\n    require(msg.value == listingPrice, \" price must be equal to listingPrice\");\n\n    _tokenId.increment();\n    _listItem.increment();\n\n    uint newTokenId=_tokenId.current();\n    _safeMint(msg.sender,newTokenId);\n    _setTokenURI(newTokenId,tokenURI);\n    usedTokenURI[tokenURI]=true;\n    createNftItem(newTokenId, price);\n\n    return newTokenId;\n  }\n\n \n\n\n  function buyNft(uint tokenId)public payable{\n    uint price = _idToNftItem[tokenId].price;\n    address owner=ERC721.ownerOf(tokenId);\n    require(msg.sender!=owner,\"u already own this Nft\");\n    require(msg.value==price,\"please sumbmit the asking price\");\n\n    _idToNftItem[tokenId].isListed =false;\n    _listItem.decrement();\n    _transfer(owner,msg.sender, tokenId);\n    payable(owner).transfer(msg.value);\n\n  }\n\n  function PlaceNftOnsale(uint tokenId,uint newPrice)public payable{\n    require(ERC721.ownerOf(tokenId)==msg.sender,\"You are not owner of this Nft\");\n    require(_idToNftItem[tokenId].isListed==false,\"Item is already on sale\");\n    require(msg.value == listingPrice,\"price must be equal to listing price\");\n\n\n    _idToNftItem[tokenId].isListed=true;\n    _idToNftItem[tokenId].price=newPrice;\n    _listItem.increment();\n\n    \n  } \n\n\n\n  function createNftItem(uint tokenId, uint price)private{\n      require(price > 0, \" price should be least 1 wei \");\n      _idToNftItem[tokenId]=NftItem(\n        tokenId,\n        price,\n        msg.sender,\n        true\n      );\n\n      emit NftItemCreated(tokenId, price, msg.sender, true);\n  }\n\n  function totalSupply()public view returns(uint){\n\n    return _allNft.length;\n  }\n\n  function tokenByIndex(uint index)public view returns(uint){\n    require(index<totalSupply(),\" Index out of the bounds\" );\n    return _allNft[index];\n  }\n\n  function tokenOfOwnerByIndex(address owner,uint index)public view returns(uint){\n    require(index<ERC721.balanceOf(owner),\"index out of bounds\" );\n    return _ownedTokens[owner][index];\n  }\n\n  function getOwnedNfts()public view returns(NftItem[]memory){\n    uint ownedItemsCount=ERC721.balanceOf(msg.sender);\n    NftItem[] memory items=new NftItem[](ownedItemsCount);\n    \n\n    for(uint i=0;i<ownedItemsCount;i++){\n      uint tokenId=tokenOfOwnerByIndex(msg.sender,i);\n      NftItem storage item=_idToNftItem[tokenId];\n      items[i]=item;\n    }\n    return items; \n\n  }\n\n  function getAllNftOnSale()public view returns(NftItem[] memory){\n    uint allItemsCount=totalSupply();\n    uint currentindex=0;\n    NftItem[]memory items=new NftItem[](_listItem.current());\n\n    for(uint i=0;i<allItemsCount;i++){\n      uint tokenId=tokenByIndex(i);\n      NftItem storage item=_idToNftItem[tokenId];\n      if(item.isListed==true){\n        items[currentindex]=item;\n        currentindex+=1;\n\n      }\n    }\n    return items;\n  }\n  \n\n  \n\n\n  function _beforeTokenTransfer(address from,address to,uint tokenId,uint data)internal virtual override{\n    super._beforeTokenTransfer(from,to,tokenId,data);\n\n\n    if(from == address(0)){\n        addTokenToAllEnumeration(tokenId);\n    }\n    else if(from!=to){\n      removeTokenFromOwnerEnumeration(from, tokenId);\n    }\n    if(to==address(0)){\n      removeTokenFromAllTokenEnumeration(tokenId);\n    }\n    else if(to!=from){\n      addTokenToOwnerEnumeration(to, tokenId);\n    }\n  }\n\n\n  function addTokenToAllEnumeration(uint tokenId)private{\n    _idToNftIndex[tokenId]=_allNft.length;\n    _allNft.push(tokenId);\n  }\n  function addTokenToOwnerEnumeration(address to,uint tokenId)private{\n    uint length=ERC721.balanceOf(to);\n    _ownedTokens[to][length]=tokenId;\n    _idToOwnedIndex[tokenId]=length;\n  }\n\n\n  function removeTokenFromOwnerEnumeration(address from,uint tokenId)public{\n       uint LastTokenIndex=ERC721.balanceOf(from)-1;\n       uint tokenIndex=_idToOwnedIndex[tokenId];\n       if(tokenIndex!=LastTokenIndex){\n        uint LastTokenId=_ownedTokens[from][LastTokenIndex];\n        _ownedTokens[from][tokenIndex]=LastTokenId;\n        _idToOwnedIndex[LastTokenId]=tokenIndex;\n       }\n       delete _idToOwnedIndex[tokenId];\n       delete _ownedTokens[from][LastTokenIndex];\n    \n  }\n\n  function removeTokenFromAllTokenEnumeration(uint tokenId)private{\n    uint lastTokenIndex=_allNft.length-1;\n    uint tokenIndex=_idToNftIndex[tokenId];\n    uint lastTokenId=_allNft[lastTokenIndex];\n\n    _allNft[tokenIndex]=lastTokenId;\n    _idToNftIndex[lastTokenId]=tokenIndex;\n\n    delete _idToNftIndex[tokenId];\n    _allNft.pop();\n\n  }\n\n  function getNftItem(uint tokenId )public view returns(NftItem memory){\n    return _idToNftItem[tokenId];\n  }\n\n  function getListedItemCount()public view returns(uint){\n    return _listItem.current();\n  }\n\n  function tokenURIExists(string memory tokenURI)public view returns(bool) {\n    return usedTokenURI[tokenURI]==true;\n  }\n}\n\n\n\n\n\n\n\n\n\n\n\n\n\n\n\n\n\n\n\n",
  "sourcePath": "/Users/idris/Desktop/nft_market/nft-Frontend/contracts/MainContract.sol",
  "compiler": {
    "name": "solc",
    "version": "0.8.9+commit.e5eed63a.Emscripten.clang"
  },
  "schemaVersion": "3.4.12",
  "updatedAt": "2023-06-05T22:59:10.928Z",
  "networkType": "ethereum",
  "devdoc": {
    "kind": "dev",
    "methods": {
      "approve(address,uint256)": {
        "details": "See {IERC721-approve}."
      },
      "balanceOf(address)": {
        "details": "See {IERC721-balanceOf}."
      },
      "getApproved(uint256)": {
        "details": "See {IERC721-getApproved}."
      },
      "isApprovedForAll(address,address)": {
        "details": "See {IERC721-isApprovedForAll}."
      },
      "name()": {
        "details": "See {IERC721Metadata-name}."
      },
      "owner()": {
        "details": "Returns the address of the current owner."
      },
      "ownerOf(uint256)": {
        "details": "See {IERC721-ownerOf}."
      },
      "renounceOwnership()": {
        "details": "Leaves the contract without owner. It will not be possible to call `onlyOwner` functions anymore. Can only be called by the current owner. NOTE: Renouncing ownership will leave the contract without an owner, thereby removing any functionality that is only available to the owner."
      },
      "safeTransferFrom(address,address,uint256)": {
        "details": "See {IERC721-safeTransferFrom}."
      },
      "safeTransferFrom(address,address,uint256,bytes)": {
        "details": "See {IERC721-safeTransferFrom}."
      },
      "setApprovalForAll(address,bool)": {
        "details": "See {IERC721-setApprovalForAll}."
      },
      "supportsInterface(bytes4)": {
        "details": "See {IERC165-supportsInterface}."
      },
      "symbol()": {
        "details": "See {IERC721Metadata-symbol}."
      },
      "tokenURI(uint256)": {
        "details": "See {IERC721Metadata-tokenURI}."
      },
      "transferFrom(address,address,uint256)": {
        "details": "See {IERC721-transferFrom}."
      },
      "transferOwnership(address)": {
        "details": "Transfers ownership of the contract to a new account (`newOwner`). Can only be called by the current owner."
      }
    },
    "version": 1
  },
  "userdoc": {
    "kind": "user",
    "methods": {},
    "version": 1
  }
}